S0150000426F6F746170705F46696E616C2E73726563F1
S113000000700020150500007D0500007D0500003E
S11300107D0500007D0500007D0500000000000056
S11300200000000000000000000000007D0500004A
S11300307D050000000000007D0500007D05000036
S11300407D0500007D0500007D0500007D050000A4
S11300507D0500007D0500007D0500007D05000094
S11300607D0500007D0500007D0500007D05000084
S11300707D0500007D0500007D0500007D05000074
S11300807D0500007D050000130B00007D050000C8
S11300907D0500007D0500007D0500007D05000054
S11300A07D0500007D0500007D0500007D05000044
S11300B07D0500007D0500007D0500007D05000034
S11300C07D050000B90D00007D0500007D050000E0
S11300D07D0500007D0500007D0500007D05000014
S11300E07D0500007D0500007D0500007D05000004
S11300F07D0500007D0500007D0500007D050000F4
S11301007D0500007D0500007D0500007D050000E3
S11303F07D0500007D0500007D050000FFFFFFFF77
S1130400FFFFFFFFFFFFFFFFFFFFFFFFFE7FFFFF79
S11304100348044B834202D0034B03B1184770478F
S1130420A084FF1FA084FF1F000000000548064BA6
S11304301B1AD90F01EBA301491002D0034B03B1DE
S113044018477047A084FF1FA084FF1F000000000E
S113045010B5064C237843B9FFF7DAFF044B13B108
S11304600448AFF300800123237010BD0000002076
S113047000000000D419000008B5044B1BB1044966
S11304800448AFF30080BDE80840CFE70000000057
S113049004000020D4190000A3F5803A704700BF7F
S11304A0174B002B08BF134B9D46FFF7F5FF0021A8
S11304B08B460F461348144A121A01F057F90E4B93
S11304C0002B00D098470D4B002B00D098470020FC
S11304D0002104000D000D48002802D00C48AFF3A1
S11304E0008001F01FF92000290000F087FE01F0D0
S11304F005F900BF00000800000000000000000033
S11305000070002000000020D40200200000000041
S11305100000000072B64FF000014FF000024FF0EF
S113052000034FF000044FF000054FF000064FF0B9
S11305300007B846B946BA46BB46BC460A490B4A08
S1130540521A013A05DD0020042308601944043AD4
S1130550FBDA07488546074880470748804762B664
S1130560FFF79EFFFEE700000080FF1F00700020E1
S113057000700020CD060000A5050000FFF7FEBFB7
S113058080B400AF064B80221A7000BF044B1B7866
S1130590DBB2002BFAD000BF00BFBD4680BC704761
S11305A00000024080B48FB000AF394B3B63394B3D
S11305B03B62394B7B61394BFB62394BFB61394BF5
S11305C03B61394BBB62394BFB60394B7B62394B26
S11305D0BB61394BBB6009E03B6A1A783B6B1A700C
S11305E03B6B01333B633B6A01333B627A693B6A91
S11305F09A42F1D109E0FB691A78FB6A1A70FB6A26
S11306000133FB62FB690133FB613A69FB699A427E
S1130610F1D105E0BB6A00221A70BB6A0133BB62E8
S1130620FA68BB6A9A42F5D109E0BB691A787B6A19
S11306301A70BB690133BB617B6A01337B62BA68A0
S1130640BB699A42F1D10023FB711C4A1C4B9A42AC
S113065016D000237B630AE0194A7B6B52F82320EF
S113066016497B6B41F823207B6B01337B63154B6D
S11306709B087A6B9A42EFD3134B104A1A6002E03C
S1130680114B0F4A1A6000BF3C37BD4680BC70470F
S11306904084FF1FFC1900005C1A0000A084FF1FA7
S11306A05C1A00005C1A000000000020D402002044
S11306B0000000205C1A00005C1A00000080FF1F8C
S11306C0000000000004000008ED00E080B400AF6A
S11306D0084B094A5A60074B5B68064B42F22012EA
S11306E01A60044B4FF6FF729A6000BFBD4680BC8F
S11306F0704700BF0020054020C528D980B584B0CC
S113070000AF786039600023FB607B681F2B05D83D
S113071000F006FA786800F013FA02E06FF00603BE
S1130720FB60FB6818461037BD4680BD80B584B0B9
S113073000AF78600B46FB700023FB607B681F2BC7
S113074013D8FB78002B02D0012B05D009E000213F
S1130750786800F015FA0BE00121786800F010FACF
S113076006E06FF00403FB6002E06FF00603FB6039
S1130770FB6818461037BD4680BD80B483B000AF17
S113078078600B46FB706FF0030318460C37BD46C8
S113079080BC704780B483B000AF78600B46FB70B8
S11307A06FF0030318460C37BD4680BC704780B415
S11307B083B000AF78600B46FB706FF003031846FC
S11307C00C37BD4680BC704780B582B000AF7860FE
S11307D039607B681F2B06D83B68DBB21946786802
S11307E000F0F4F900BF00BF0837BD4680BD80B5F6
S11307F084B000AF78607B681F2B04D8786800F061
S11308000BFA0346FB60FB6818461037BD4680BDF3
S113081080B483B000AF074B1B687B600023BA88A9
S113082062F30F03FA8862F31F4318460C37BD4680
S113083080BC70479419000080B400AF002343F0DB
S113084001031846BD4680BC704780B582B000AF36
S1130850786000F0F9F900F01FFA00F031FA002393
S113086018460837BD4680BD80B400AF6FF003035F
S11308701846BD4680BC704780B483B000AF0346C1
S1130880FB716FF0030318460C37BD4680BC7047FC
S113089080B582B000AF78603960786800F066FA9D
S11308A0002318460837BD4680BD80B582B000AF2E
S11308B078603960786800F06FFA0346002B01D144
S11308C0002301E04FF0FF3318460837BD4680BDD2
S11308D080B485B000AFF860B9607A606FF003034C
S11308E018461437BD4680BC704780B400AF6FF023
S11308F003031846BD4680BC704780B400AF6FF058
S113090003031846BD4680BC704780B483B000AF73
S1130910786039606FF0030318460C37BD4680BC1D
S1130920704780B483B000AF00237B607B681846B7
S11309300C37BD4680BC704780B483B000AF03461B
S1130940FB716FF0030318460C37BD4680BC70473B
S113095080B483B000AF00237B607B6818460C37FB
S1130960BD4680BC704780B483B000AF78607B68BC
S11309701B6818460C37BD4680BC704780B485B0F0
S113098000AF104BBB60104B7B60104B3B600023EF
S1130990FB600CE0FB689B00BA681A44FB689B0090
S11309A079680B4412681A60FB680133FB60FA68CB
S11309B03B689A42EED300BF00BF1437BD4680BCEB
S11309C0704700BF800500000084FF1F090000007D
S11309D080B582B000AF7860396000BF254B1B78CA
S11309E0DBB2002BFAD0234B1B78DBB2802B02D076
S11309F0204B30221A701F4B0722DA717B681A0CC5
S1130A001C4BD2B29A717B681A0A1A4BD2B25A7131
S1130A10184B7A68D2B21A713B680333154A1B78B3
S1130A20D3723B680233134A1B7893723B680133D9
S1130A30104A1B7853720F4A3B681B7813723B6849
S1130A4007330C4A1B78D3733B680633094A1B7877
S1130A5093733B680533074A1B7853733B6804332D
S1130A60044A1B781373044B98470123184608372C
S1130A70BD4680BD000002400184FF1F80B582B0E6
S1130A8000AF786000BF124B1B78DBB2002BFAD0AA
S1130A900F4B1B78DBB2802B02D00D4B30221A7027
S1130AA00B4B0922DA717B681A0C094BD2B29A718A
S1130AB07B681A0A064BD2B25A71054B7A68D2B2D5
S1130AC01A71044B9847012318460837BD4680BD68
S1130AD0000002400184FF1F80B584B000AF78603D
S1130AE00B46FB700023FB730AE0FB7B1B031A46D7
S1130AF07B6813441846FFF7C1FFFB7B0133FB738C
S1130B00FA7BFB789A42F0D3012318461037BD468E
S1130B1080BD80B400AF00BFBD4680BC70470000FC
S1130B2080B400AF054BD3F82C31044A43F0804322
S1130B30C2F82C3100BFBD4680BC7047005006404F
S1130B4080B483B000AF78600C4A7B6852F82330DD
S1130B500A4923F4E0627B6841F82320074A7B6852
S1130B6052F82330054943F480727B6841F823200E
S1130B7000BF0C37BD4680BC704700BF00B00440C6
S1130B8080B483B000AF78600B46FB70FB78012B18
S1130B900AD10D4B5B6901217A6801FA02F2114610
S1130BA0094A0B4353610AE0074B5B6901217A68E8
S1130BB001FA02F2D2431146034A0B40536100BFCB
S1130BC00C37BD4680BC704780F00F4080B483B0C2
S1130BD000AF78600B46FB70FB78012B0AD10D4BFC
S1130BE05B6801217A6801FA02F21146094A0B4353
S1130BF0536009E0074B9B6801217A6801FA02F20D
S1130C001146044A0B43936000BF0C37BD4680BCB9
S1130C10704700BF80F00F4080B483B000AF7860AD
S1130C20084B1B6901217A6801FA02F21340002B78
S1130C3014BF01230023DBB218460C37BD4680BC29
S1130C40704700BF80F00F4080B400AF114BD3F861
S1130C50AC31104A23F0E063C2F8AC310D4BD3F849
S1130C60AC310C4A43F08073C2F8AC31094BD3F871
S1130C70AC31084A43F08043C2F8AC31054BD3F899
S1130C802C31044A43F08043C2F82C3100BFBD46E6
S1130C9080BC70470050064080B400AF074BDB694E
S1130CA0064A43F40073D361044B9B69034A43F43B
S1130CB00073936100BFBD4680BC704700B0044020
S1130CC080B500AF1A4B9B69194A23F44023936102
S1130CD0174B9B69164A23F010039361144B9B69CD
S1130CE0134A23F400639361114B9B69104A23F068
S1130CF0020393610E4B5B690D4A23F00053536169
S1130D000B4B0C4A1A610A4B9B69094A43F40013C2
S1130D109361094B02221A60054B9B69044A43F410
S1130D2040239361054800F0B3F800BF80BD00BFC5
S1130D3000B006400700000904E100E01C000020A8
S1130D4080B483B000AF0346FB7100BF064B5B6900
S1130D5003F40003002BF9D0034AFB79D36100BFED
S1130D600C37BD4680BC704700B0064080B582B0E9
S1130D7000AF786007E07B681B781846FFF7E0FF58
S1130D807B6801337B607B681B78002BF3D100BF49
S1130D9000BF0837BD4680BD80B582B000AF786023
S1130DA07968044800F0C6F8034618460837BD467B
S1130DB080BD00BF1C00002080B582B000AF184B7E
S1130DC05B6903F40013002B26D0154BDB69FB7120
S1130DD0FB790A2B20D0FB790D2B0DD1114B1B78FD
S1130DE01A46114B002199540F49104800F068F835
S1130DF00C4B00221A700FE00A4B1B78622B0BD8A5
S1130E00084B1B781946084AFB795354054B1B7849
S1130E100133DAB2034B1A7000BF0837BD4680BDF8
S1130E2000B0064014020020B00100201C00002085
S1130E3080B487B000AFF860B9601346FB7100233B
S1130E40FB75FB68002B1ED0BB68002B1BD00AE08F
S1130E50FB7DBA681A44FB7DF9680B4412781A705A
S1130E60FB7D0133FB75FA7DFB79013B9A4205D288
S1130E70FB7DBA6813441B78002BE9D1FB7DFA682B
S1130E80134400221A7000BF1C37BD4680BC704753
S1130E9080B483B000AF78607B68002B0BD07B6894
S1130EA0002283F890217B68002283F891217B68DB
S1130EB0002283F8922100BF0C37BD4680BC7047E6
S1130EC080B584B000AF786039600123FB737B6820
S1130ED0002B2AD03B68002B27D07B6893F89231F3
S1130EE0032B22D87B6893F891311A46642302FBC2
S1130EF003F37A681344642239681846FFF798FFAD
S1130F007B6893F891310133DBB203F00303DAB267
S1130F107B6883F891217B6893F892310133DAB2CC
S1130F207B6883F892210023FB73FB7B1846103700
S1130F30BD4680BD80B584B000AF786039600123C0
S1130F40FB737B68002B2AD03B68002B27D07B687F
S1130F5093F89231002B22D07B6893F890311A4693
S1130F60642302FB03F37A68134464221946386845
S1130F70FFF75EFF7B6893F890310133DBB203F037
S1130F800303DAB27B6883F890217B6893F892318B
S1130F90013BDAB27B6883F892210023FB73FB7B6D
S1130FA018461037BD4680BD80B485B000AF786068
S1130FB00023FB730023BB737B68002B4CD00023FE
S1130FC0BB7346E0FB7B1B01FB73BB7B7A6813445A
S1130FD01B782F2B0FD9BB7B7A6813441B78392BD2
S1130FE009D8BB7B7A6813441B78303BDAB2FB7BAD
S1130FF01343FB732AE0BB7B7A6813441B78402BB2
S11310000FD9BB7B7A6813441B78462B09D8BB7B6A
S11310107A6813441B78373BDAB2FB7B1343FB73C8
S113102014E0BB7B7A6813441B78602B0ED9BB7B1E
S11310307A6813441B78662B08D8BB7B7A68134400
S11310401B78573BDAB2FB7B1343FB73BB7B013347
S1131050BB73BB7B012BB5D9FB7B18461437BD464C
S113106080BC704780B584B000AF786039600023DD
S1131070FB730023BB730023FB7200237B730023E9
S11310803B730023BB727B68002B02D03B68002BB0
S113109002D10423FB73ACE07B681B78532B02D092
S11310A00123FB73A5E07B6801331B78303BDAB284
S11310B03B6883F845203B6893F84530002B09D002
S11310C03B6893F84530012B04D03B6893F84530D6
S11310D0092B02D10223BB731BE03B6893F8453014
S11310E0022B04D03B6893F84530082B02D103232C
S11310F0BB730EE03B6893F84530032B04D03B6888
S113110093F84530072B02D10423BB7301E003237A
S1131110FB73FB7B002B6CD17B6802331846FFF713
S113112043FF0346FB72FB7A7B733B6800221A6021
S113113000237B7200233B7317E03B7B02335B008D
S11311407A6813441846FFF72FFF0346BB723B68C7
S11311501B681A02BB7A1A433B681A607A7BBB7A13
S113116013447B733B7B01333B733A7BBB7B9A42D7
S1131170E3D3FA7ABB7BD31ADBB2013BDAB23B6826
S113118083F8442000233B7317E0BA7B3B7B134472
S113119002335B007A6813441846FFF705FF0346E1
S11311A0BB723B7B3A681344BA7A1A717A7BBB7A76
S11311B013447B733B7B01333B733B6893F84430AC
S11311C03A7B9A42E1D3BB7B3A6892F844201344B9
S11311D002335B007A6813441846FFF7E5FE0346C2
S11311E07B727B7BDB43DBB27A7A9A4201D00223A7
S11311F0FB73FB7B18461037BD4680BD80B586B0B7
S113120000AF0023FB600023FB7200237B610023FB
S11312103B6100237B6000F0A7F900F0CFF900F0F8
S1131220F9F9FFF7ABFB62B6704B1B6800210D2088
S113123098476E4B5B6800210D2098476B4B9B6968
S11312400D2098470346002B0BD04FF42040FFF7A6
S11312508AFB0346B3F1FF3F03D04FF4204000F074
S1131260EFF9634B9B6800209847614B5B69002151
S1131270604898475E4B5B6900215F48984772B6A7
S113128076214FF42040FFF727FC62B6584B5B6988
S113129000215A489847564B5B69002158489847A3
S11312A0534B9B69642157489847F860FB68002BAF
S11312B0F6D155495348FFF7D5FE0346FB72FB7A36
S11312C0002B77D1504B93F84530002B5BD04E4B1D
S11312D093F84530032B56D84C4B1B78002B0AD17E
S11312E0494B93F845204A4B1A70484B1B780133FD
S11312F0DAB2464B1A70444B93F84520444B1B78A2
S11313009A421BD03A4B5B69002142489847384BBC
S11313105B6900214048984772B676214FF420401B
S1131320FFF7DAFB62B6324B5B6900213B48984712
S11313302F4B5B6900213A489847FEE7324B93F8FC
S113134044307B6100233B611AE07B69072B01D9A0
S1131350082300E004237B602B4B1A683B69D018F8
S11313603B69294A134404337A68194600F06AF841
S11313707A697B68D31A7B613A697B6813443B6161
S11313807B69002BE1D1204B93F84530062B87D99C
S11313901D4B93F84530092B82D800F0C5F8144B47
S11313A05B6900211F489847114B5B6900211E4867
S11313B0984775E7FB7A184600F060F90C4B5B69B7
S11313C000211548984772B676214FF42040FFF764
S11313D083FB62B6064B5B69002108489847044BBF
S11313E05B6900210E489847FEE700BF78190000AA
S11313F098190000801700009C170000B417000023
S1131400BC170000180200207C020020D202002039
S1131410D1020020E81700001C1800003418000056
S11314203C180000641800008018000080B483B0E9
S113143000AF78607B6883F3088800BF0C37BD4633
S113144080BC704780B586B000AFF860B9607A6040
S11314500023FB75304B1B78012B3CD12F4B1B68B1
S11314600433FA689A4223D1BB681B681A462C4B92
S11314705A6072B6294B1B6829491846FFF7A8FA27
S113148062B67B68082B0DD1BB6804331B681A460F
S1131490234B1A60FB680433204A13601E4B01225D
S11314A01A7002E01C4B00221A700023FB7514E032
S11314B00422FF211B4800F059F972B6174B1B6830
S11314C017491846FFF784FA62B6134B00221A70C4
S11314D00123FB7501E00123FB75FB7D012B17D173
S11314E07B68082B06D172B6B968F868FFF770FA02
S11314F062B60DE07B68042B0AD1BB681B681A46F0
S1131500074B1A60054AFB681360034B01221A70EB
S113151000BF1837BD4680BDD0020020CC02002099
S1131520C4020020C802002080B500AF0A4B1B781B
S1131530012B0FD10422FF21084800F017F972B6DD
S1131540074B1B6807491846FFF742FA62B6024B7D
S113155000221A7000BF80BDD0020020C802002003
S1131560CC020020C402002080B400AF124B40F231
S11315700112C3F80421104B2422C3F8082100BF30
S11315800D4BD3F8003103F40003002BF8D10A4BC0
S1131590D3F80031084A43F00103C2F8003100BF18
S11315A0054BD3F8003103F08073002BF8D000BF53
S11315B000BFBD4680BC70470040064080B400AF09
S11315C0134B40F20232C3F80426114B4FF4C012FD
S11315D0C3F8082600BF0E4BD3F8003603F400030B
S11315E0002BF8D10A4BD3F80036094A43F0010323
S11315F0C2F8003600BF064BD3F8003603F0807300
S1131600002BF8D000BF00BFBD4680BC704700BFB0
S11316100040064080B400AF074B084A5A6100BF3F
S1131620054B1B691B0E03F00F03062BF8D100BFFB
S113163000BFBD4680BC704700400640350001062F
S113164080B584B000AF78600023FB600023BB60EA
S11316507B6804331846FFF786F9F860FB68BB60C3
S113166072B67868FFF77FF903461846FFF7DEFE87
S1131670BB68984700BF1037BD4680BD80B584B0B5
S113168000AF0346FB71164BFB60FB79013B032B58
S113169016D801A252F823F0AF160000BB160000C2
S11316A0B5160000A91600000E4BFB6009E00E4BB6
S11316B0FB6006E00D4BFB6003E00D4BFB6000E0BC
S11316C000BF0C4B5B6900210B489847094B5B69D1
S11316D00021F868984700BF1037BD4680BD00BFA1
S11316E0B8180000C8180000E81800001C19000011
S11316F048190000981900006419000008B5074B48
S1131700044613B10021AFF30080054B1868836AC7
S113171003B19847204600F031F800BF00000000F4
S1131720D019000070B50D4D0D4C641BA41000269B
S1131730A64209D10B4D0C4C00F04CF9641BA410CB
S11317400026A64205D170BD55F8043B98470136E2
S1131750EEE755F8043B98470136F2E7F419000028
S1131760F4190000F4190000F819000002440346BB
S1131770934200D1704703F8011BF9E7FEE700002C
S11317800D0A3D3D3D20424F4F5420415050204DC5
S11317904F4445203D3D3D0D0A0000003E3E20459E
S11317A0726173696E6720466C6173682E2E2E20F9
S11317B000000000446F6E652E0D0A003E3E20526C
S11317C06571756573743A20506C65617365207337
S11317D0656E6420535245432066696C65206E6FC4
S11317E0772E2E2E0D0A00000D0A3E3E20537973EB
S11317F074656D2048616C7465643A204475706C3E
S113180069636174656420547970657320446574F8
S113181065637465642E0D0A000000000D0A3E3EE7
S11318202045726173696E6720466C6173682E2E61
S11318302E200000446F6E650D0A00003E3E2052CB
S11318406571756573743A20506C656173652072B7
S1131850657365742074686520626F6172640D0A33
S1131860000000000D0A3E3E20446F776E6C6F61ED
S11318706420436F6D706C657465210D0A0000006F
S11318800D0A3E3E20526571756573743A2050729C
S113189065737320746865205245534554206275FE
S11318A074746F6E20746F2072756E205573657238
S11318B0417070210D0A0000556E6B6E6F776E20BB
S11318C04572726F720000004552524F523A204ED8
S11318D0756C6C20506F696E7465722064657465F4
S11318E063746564210000004552524F523A204906
S11318F06E76616C696420532D5265636F72642047
S1131900547970652028537461727420636861721D
S1131910206E6F7420275327292100004552524F0F
S1131920523A20496E76616C696420466F726D612B
S11319307420284C656E677468206D69736D6174DA
S113194063682921000000004552524F523A204357
S11319506865636B73756D204D69736D617463683D
S1131960210000000D0A3E3E20464154414C2045D2
S113197052524F523A200000FD0600002D0700008D
S11319807B07000095070000AF070000C9070000AF
S1131990EF070000040200011108000039080000EC
S11319A04B08000069080000790800009108000055
S11319B0AB080000D1080000EB080000FB080000A1
S11319C00B09000023090000390900005109000037
S11319D04084FF1FF8B500BFF8BC08BC9E467047A2
S10F19E0F8B500BFF8BC08BC9E46704778
S10B19ECACEAFF7F01000000DA
S10719F4790400006E
S10719F85104000092
S11319FC00000000000000000000000000000000D7
S1131A0C00000000000000000000000000000000C6
S1131A1C00000000000000000000000000000000B6
S1131A2C00000000000000000000000000000000A6
S1131A3C0000000000000000000000000000000096
S1131A4C0000000000000000000000000000000086
S9030515E2
